{
  "_format": "hh-sol-artifact-1",
  "contractName": "QUBOND",
  "sourceName": "contracts/token/QUBOND.sol",
  "abi": [
    {
      "anonymous": false,
      "inputs": [
        {
          "indexed": true,
          "internalType": "address",
          "name": "owner",
          "type": "address"
        },
        {
          "indexed": true,
          "internalType": "address",
          "name": "approved",
          "type": "address"
        },
        {
          "indexed": true,
          "internalType": "uint256",
          "name": "tokenId",
          "type": "uint256"
        }
      ],
      "name": "Approval",
      "type": "event"
    },
    {
      "anonymous": false,
      "inputs": [
        {
          "indexed": true,
          "internalType": "address",
          "name": "owner",
          "type": "address"
        },
        {
          "indexed": true,
          "internalType": "address",
          "name": "operator",
          "type": "address"
        },
        {
          "indexed": false,
          "internalType": "bool",
          "name": "approved",
          "type": "bool"
        }
      ],
      "name": "ApprovalForAll",
      "type": "event"
    },
    {
      "anonymous": false,
      "inputs": [
        {
          "indexed": true,
          "internalType": "address",
          "name": "from",
          "type": "address"
        },
        {
          "indexed": true,
          "internalType": "address",
          "name": "to",
          "type": "address"
        },
        {
          "indexed": true,
          "internalType": "uint256",
          "name": "tokenId",
          "type": "uint256"
        }
      ],
      "name": "Transfer",
      "type": "event"
    },
    {
      "inputs": [
        {
          "internalType": "address",
          "name": "to",
          "type": "address"
        },
        {
          "internalType": "uint256",
          "name": "tokenId",
          "type": "uint256"
        }
      ],
      "name": "approve",
      "outputs": [],
      "stateMutability": "nonpayable",
      "type": "function"
    },
    {
      "inputs": [
        {
          "internalType": "address",
          "name": "owner",
          "type": "address"
        }
      ],
      "name": "balanceOf",
      "outputs": [
        {
          "internalType": "uint256",
          "name": "",
          "type": "uint256"
        }
      ],
      "stateMutability": "view",
      "type": "function"
    },
    {
      "inputs": [
        {
          "internalType": "bytes[]",
          "name": "calls",
          "type": "bytes[]"
        },
        {
          "internalType": "bool",
          "name": "revertOnFail",
          "type": "bool"
        }
      ],
      "name": "batch",
      "outputs": [],
      "stateMutability": "payable",
      "type": "function"
    },
    {
      "inputs": [
        {
          "internalType": "bytes32",
          "name": "",
          "type": "bytes32"
        }
      ],
      "name": "bonds",
      "outputs": [
        {
          "internalType": "uint256",
          "name": "",
          "type": "uint256"
        }
      ],
      "stateMutability": "view",
      "type": "function"
    },
    {
      "inputs": [
        {
          "internalType": "string",
          "name": "multiaddr",
          "type": "string"
        },
        {
          "internalType": "uint256",
          "name": "value",
          "type": "uint256"
        }
      ],
      "name": "decreaseBond",
      "outputs": [],
      "stateMutability": "nonpayable",
      "type": "function"
    },
    {
      "inputs": [
        {
          "internalType": "uint256",
          "name": "tokenId",
          "type": "uint256"
        }
      ],
      "name": "getApproved",
      "outputs": [
        {
          "internalType": "address",
          "name": "",
          "type": "address"
        }
      ],
      "stateMutability": "view",
      "type": "function"
    },
    {
      "inputs": [
        {
          "internalType": "address",
          "name": "token",
          "type": "address"
        }
      ],
      "name": "inCaseTokensGetStuck",
      "outputs": [],
      "stateMutability": "nonpayable",
      "type": "function"
    },
    {
      "inputs": [
        {
          "internalType": "string",
          "name": "multiaddr",
          "type": "string"
        },
        {
          "internalType": "uint256",
          "name": "value",
          "type": "uint256"
        }
      ],
      "name": "increaseBond",
      "outputs": [],
      "stateMutability": "nonpayable",
      "type": "function"
    },
    {
      "inputs": [
        {
          "internalType": "address",
          "name": "_qu",
          "type": "address"
        }
      ],
      "name": "initialize",
      "outputs": [],
      "stateMutability": "nonpayable",
      "type": "function"
    },
    {
      "inputs": [
        {
          "internalType": "address",
          "name": "owner",
          "type": "address"
        },
        {
          "internalType": "address",
          "name": "operator",
          "type": "address"
        }
      ],
      "name": "isApprovedForAll",
      "outputs": [
        {
          "internalType": "bool",
          "name": "",
          "type": "bool"
        }
      ],
      "stateMutability": "view",
      "type": "function"
    },
    {
      "inputs": [
        {
          "internalType": "string",
          "name": "multiaddr",
          "type": "string"
        }
      ],
      "name": "mint",
      "outputs": [],
      "stateMutability": "nonpayable",
      "type": "function"
    },
    {
      "inputs": [],
      "name": "name",
      "outputs": [
        {
          "internalType": "string",
          "name": "",
          "type": "string"
        }
      ],
      "stateMutability": "view",
      "type": "function"
    },
    {
      "inputs": [
        {
          "internalType": "uint256",
          "name": "tokenId",
          "type": "uint256"
        }
      ],
      "name": "ownerOf",
      "outputs": [
        {
          "internalType": "address",
          "name": "",
          "type": "address"
        }
      ],
      "stateMutability": "view",
      "type": "function"
    },
    {
      "inputs": [
        {
          "internalType": "address",
          "name": "owner",
          "type": "address"
        },
        {
          "internalType": "uint256",
          "name": "value",
          "type": "uint256"
        },
        {
          "internalType": "uint256",
          "name": "deadline",
          "type": "uint256"
        },
        {
          "internalType": "bytes",
          "name": "signature",
          "type": "bytes"
        }
      ],
      "name": "permit",
      "outputs": [],
      "stateMutability": "nonpayable",
      "type": "function"
    },
    {
      "inputs": [
        {
          "internalType": "contract IERC20",
          "name": "token",
          "type": "address"
        },
        {
          "internalType": "address",
          "name": "from",
          "type": "address"
        },
        {
          "internalType": "address",
          "name": "to",
          "type": "address"
        },
        {
          "internalType": "uint256",
          "name": "amount",
          "type": "uint256"
        },
        {
          "internalType": "uint256",
          "name": "deadline",
          "type": "uint256"
        },
        {
          "internalType": "uint8",
          "name": "v",
          "type": "uint8"
        },
        {
          "internalType": "bytes32",
          "name": "r",
          "type": "bytes32"
        },
        {
          "internalType": "bytes32",
          "name": "s",
          "type": "bytes32"
        }
      ],
      "name": "permitToken",
      "outputs": [],
      "stateMutability": "nonpayable",
      "type": "function"
    },
    {
      "inputs": [],
      "name": "qu",
      "outputs": [
        {
          "internalType": "address",
          "name": "",
          "type": "address"
        }
      ],
      "stateMutability": "view",
      "type": "function"
    },
    {
      "inputs": [
        {
          "internalType": "address",
          "name": "from",
          "type": "address"
        },
        {
          "internalType": "address",
          "name": "to",
          "type": "address"
        },
        {
          "internalType": "uint256",
          "name": "tokenId",
          "type": "uint256"
        }
      ],
      "name": "safeTransferFrom",
      "outputs": [],
      "stateMutability": "nonpayable",
      "type": "function"
    },
    {
      "inputs": [
        {
          "internalType": "address",
          "name": "from",
          "type": "address"
        },
        {
          "internalType": "address",
          "name": "to",
          "type": "address"
        },
        {
          "internalType": "uint256",
          "name": "tokenId",
          "type": "uint256"
        },
        {
          "internalType": "bytes",
          "name": "_data",
          "type": "bytes"
        }
      ],
      "name": "safeTransferFrom",
      "outputs": [],
      "stateMutability": "nonpayable",
      "type": "function"
    },
    {
      "inputs": [
        {
          "internalType": "address",
          "name": "operator",
          "type": "address"
        },
        {
          "internalType": "bool",
          "name": "approved",
          "type": "bool"
        }
      ],
      "name": "setApprovalForAll",
      "outputs": [],
      "stateMutability": "nonpayable",
      "type": "function"
    },
    {
      "inputs": [
        {
          "internalType": "bytes4",
          "name": "interfaceId",
          "type": "bytes4"
        }
      ],
      "name": "supportsInterface",
      "outputs": [
        {
          "internalType": "bool",
          "name": "",
          "type": "bool"
        }
      ],
      "stateMutability": "view",
      "type": "function"
    },
    {
      "inputs": [],
      "name": "symbol",
      "outputs": [
        {
          "internalType": "string",
          "name": "",
          "type": "string"
        }
      ],
      "stateMutability": "view",
      "type": "function"
    },
    {
      "inputs": [
        {
          "internalType": "uint256",
          "name": "tokenId",
          "type": "uint256"
        }
      ],
      "name": "tokenURI",
      "outputs": [
        {
          "internalType": "string",
          "name": "",
          "type": "string"
        }
      ],
      "stateMutability": "view",
      "type": "function"
    },
    {
      "inputs": [],
      "name": "totalBonded",
      "outputs": [
        {
          "internalType": "uint256",
          "name": "",
          "type": "uint256"
        }
      ],
      "stateMutability": "view",
      "type": "function"
    },
    {
      "inputs": [
        {
          "internalType": "address",
          "name": "from",
          "type": "address"
        },
        {
          "internalType": "address",
          "name": "to",
          "type": "address"
        },
        {
          "internalType": "uint256",
          "name": "tokenId",
          "type": "uint256"
        }
      ],
      "name": "transferFrom",
      "outputs": [],
      "stateMutability": "nonpayable",
      "type": "function"
    }
  ],
  "bytecode": "0x608060405234801561001057600080fd5b50614066806100206000396000f3fe60806040526004361061014b5760003560e01c80638f75e076116100b6578063c87b56dd1161006f578063c87b56dd1461049e578063d2423b51146104db578063d85d3d27146104f7578063def68a9c14610520578063e985e9c514610549578063f0f87abf146105865761014b565b80638f75e0761461039257806395d89b41146103bb578063a22cb465146103e6578063b88d4fde1461040f578063b9ad7ea914610438578063c4d66de8146104755761014b565b806342842e0e1161010857806342842e0e1461027257806344d96e951461029b5780636352211e146102c657806370a0823114610303578063745a41bc146103405780637c516e94146103695761014b565b806301ffc9a71461015057806306fdde031461018d578063081812fc146101b8578063095ea7b3146101f557806315cc2e271461021e57806323b872dd14610249575b600080fd5b34801561015c57600080fd5b5061017760048036038101906101729190612ba0565b6105af565b6040516101849190613325565b60405180910390f35b34801561019957600080fd5b506101a2610691565b6040516101af9190613340565b60405180910390f35b3480156101c457600080fd5b506101df60048036038101906101da9190612d7a565b610723565b6040516101ec91906131ef565b60405180910390f35b34801561020157600080fd5b5061021c60048036038101906102179190612a3f565b6107a8565b005b34801561022a57600080fd5b506102336108c0565b60405161024091906131ef565b60405180910390f35b34801561025557600080fd5b50610270600480360381019061026b9190612939565b6108e6565b005b34801561027e57600080fd5b5061029960048036038101906102949190612939565b610946565b005b3480156102a757600080fd5b506102b0610966565b6040516102bd91906135e2565b60405180910390f35b3480156102d257600080fd5b506102ed60048036038101906102e89190612d7a565b61096c565b6040516102fa91906131ef565b60405180910390f35b34801561030f57600080fd5b5061032a600480360381019061032591906128d4565b610a1e565b60405161033791906135e2565b60405180910390f35b34801561034c57600080fd5b5061036760048036038101906103629190612a7b565b610ad6565b005b34801561037557600080fd5b50610390600480360381019061038b9190612bf2565b610b8c565b005b34801561039e57600080fd5b506103b960048036038101906103b49190612d26565b610c0d565b005b3480156103c757600080fd5b506103d0610d67565b6040516103dd9190613340565b60405180910390f35b3480156103f257600080fd5b5061040d60048036038101906104089190612a03565b610df9565b005b34801561041b57600080fd5b5061043660048036038101906104319190612988565b610e0f565b005b34801561044457600080fd5b5061045f600480360381019061045a9190612b77565b610e71565b60405161046c91906135e2565b60405180910390f35b34801561048157600080fd5b5061049c600480360381019061049791906128d4565b610e89565b005b3480156104aa57600080fd5b506104c560048036038101906104c09190612d7a565b611023565b6040516104d29190613340565b60405180910390f35b6104f560048036038101906104f09190612af6565b6110ca565b005b34801561050357600080fd5b5061051e60048036038101906105199190612ca4565b611200565b005b34801561052c57600080fd5b50610547600480360381019061054291906128d4565b611267565b005b34801561055557600080fd5b50610570600480360381019061056b91906128fd565b611597565b60405161057d9190613325565b60405180910390f35b34801561059257600080fd5b506105ad60048036038101906105a89190612d26565b61162b565b005b60007f80ac58cd000000000000000000000000000000000000000000000000000000007bffffffffffffffffffffffffffffffffffffffffffffffffffffffff1916827bffffffffffffffffffffffffffffffffffffffffffffffffffffffff1916148061067a57507f5b5e139f000000000000000000000000000000000000000000000000000000007bffffffffffffffffffffffffffffffffffffffffffffffffffffffff1916827bffffffffffffffffffffffffffffffffffffffffffffffffffffffff1916145b8061068a5750610689826117fc565b5b9050919050565b6060606580546106a0906138c3565b80601f01602080910402602001604051908101604052809291908181526020018280546106cc906138c3565b80156107195780601f106106ee57610100808354040283529160200191610719565b820191906000526020600020905b8154815290600101906020018083116106fc57829003601f168201915b5050505050905090565b600061072e82611866565b61076d576040517f08c379a000000000000000000000000000000000000000000000000000000000815260040161076490613502565b60405180910390fd5b6069600083815260200190815260200160002060009054906101000a900473ffffffffffffffffffffffffffffffffffffffff169050919050565b60006107b38261096c565b90508073ffffffffffffffffffffffffffffffffffffffff168373ffffffffffffffffffffffffffffffffffffffff161415610824576040517f08c379a000000000000000000000000000000000000000000000000000000000815260040161081b90613562565b60405180910390fd5b8073ffffffffffffffffffffffffffffffffffffffff166108436118d2565b73ffffffffffffffffffffffffffffffffffffffff16148061087257506108718161086c6118d2565b611597565b5b6108b1576040517f08c379a00000000000000000000000000000000000000000000000000000000081526004016108a890613462565b60405180910390fd5b6108bb83836118da565b505050565b609760009054906101000a900473ffffffffffffffffffffffffffffffffffffffff1681565b6108f76108f16118d2565b82611993565b610936576040517f08c379a000000000000000000000000000000000000000000000000000000000815260040161092d90613582565b60405180910390fd5b610941838383611a71565b505050565b61096183838360405180602001604052806000815250610e0f565b505050565b60985481565b6000806067600084815260200190815260200160002060009054906101000a900473ffffffffffffffffffffffffffffffffffffffff169050600073ffffffffffffffffffffffffffffffffffffffff168173ffffffffffffffffffffffffffffffffffffffff161415610a15576040517f08c379a0000000000000000000000000000000000000000000000000000000008152600401610a0c906134a2565b60405180910390fd5b80915050919050565b60008073ffffffffffffffffffffffffffffffffffffffff168273ffffffffffffffffffffffffffffffffffffffff161415610a8f576040517f08c379a0000000000000000000000000000000000000000000000000000000008152600401610a8690613482565b60405180910390fd5b606860008373ffffffffffffffffffffffffffffffffffffffff1673ffffffffffffffffffffffffffffffffffffffff168152602001908152602001600020549050919050565b6000806000610ae484611cd8565b925092509250609760009054906101000a900473ffffffffffffffffffffffffffffffffffffffff1673ffffffffffffffffffffffffffffffffffffffff1663d505accf883089898888886040518863ffffffff1660e01b8152600401610b51979695949392919061328d565b600060405180830381600087803b158015610b6b57600080fd5b505af1158015610b7f573d6000803e3d6000fd5b5050505050505050505050565b8773ffffffffffffffffffffffffffffffffffffffff1663d505accf888888888888886040518863ffffffff1660e01b8152600401610bd1979695949392919061328d565b600060405180830381600087803b158015610beb57600080fd5b505af1158015610bff573d6000803e3d6000fd5b505050505050505050505050565b610c2281609854611cfc90919063ffffffff16565b6098819055506000610c3383611d12565b9050610c5b826099600084815260200190815260200160002054611cfc90919063ffffffff16565b6099600083815260200190815260200160002081905550609760009054906101000a900473ffffffffffffffffffffffffffffffffffffffff1673ffffffffffffffffffffffffffffffffffffffff166323b872dd3330856040518463ffffffff1660e01b8152600401610cd19392919061320a565b602060405180830381600087803b158015610ceb57600080fd5b505af1158015610cff573d6000803e3d6000fd5b505050506040513d601f19601f82011682018060405250810190610d239190612b4e565b610d62576040517f08c379a0000000000000000000000000000000000000000000000000000000008152600401610d59906133c2565b60405180910390fd5b505050565b606060668054610d76906138c3565b80601f0160208091040260200160405190810160405280929190818152602001828054610da2906138c3565b8015610def5780601f10610dc457610100808354040283529160200191610def565b820191906000526020600020905b815481529060010190602001808311610dd257829003601f168201915b5050505050905090565b610e0b610e046118d2565b8383611d42565b5050565b610e20610e1a6118d2565b83611993565b610e5f576040517f08c379a0000000000000000000000000000000000000000000000000000000008152600401610e5690613582565b60405180910390fd5b610e6b84848484611eaf565b50505050565b60996020528060005260406000206000915090505481565b600060019054906101000a900460ff16610eb15760008054906101000a900460ff1615610eba565b610eb9611f0b565b5b610ef9576040517f08c379a0000000000000000000000000000000000000000000000000000000008152600401610ef0906134c2565b60405180910390fd5b60008060019054906101000a900460ff161590508015610f49576001600060016101000a81548160ff02191690831515021790555060016000806101000a81548160ff0219169083151502179055505b610fbd6040518060400160405280600681526020017f5155424f4e4400000000000000000000000000000000000000000000000000008152506040518060400160405280600681526020017f5155424f4e440000000000000000000000000000000000000000000000000000815250611f1c565b81609760006101000a81548173ffffffffffffffffffffffffffffffffffffffff021916908373ffffffffffffffffffffffffffffffffffffffff160217905550801561101f5760008060016101000a81548160ff0219169083151502179055505b5050565b606061102e82611866565b61106d576040517f08c379a000000000000000000000000000000000000000000000000000000000815260040161106490613522565b60405180910390fd5b6000611077611f79565b9050600081511161109757604051806020016040528060008152506110c2565b806110a184611f90565b6040516020016110b29291906131cb565b6040516020818303038152906040525b915050919050565b60005b838390508110156111fa576000803073ffffffffffffffffffffffffffffffffffffffff1686868581811061112b577f4e487b7100000000000000000000000000000000000000000000000000000000600052603260045260246000fd5b905060200281019061113d91906135fd565b60405161114b92919061319b565b600060405180830381855af49150503d8060008114611186576040519150601f19603f3d011682016040523d82523d6000602084013e61118b565b606091505b50915091508115801561119b5750835b156111e5576111a98161213d565b6040517f08c379a00000000000000000000000000000000000000000000000000000000081526004016111dc9190613340565b60405180910390fd5b505080806111f290613926565b9150506110cd565b50505050565b600061120b82611d12565b60001c905061121981611866565b15611259576040517f08c379a000000000000000000000000000000000000000000000000000000000815260040161125090613442565b60405180910390fd5b61126333826121a8565b5050565b609760009054906101000a900473ffffffffffffffffffffffffffffffffffffffff1673ffffffffffffffffffffffffffffffffffffffff168173ffffffffffffffffffffffffffffffffffffffff16141561143957600061135c6098548373ffffffffffffffffffffffffffffffffffffffff166370a08231306040518263ffffffff1660e01b81526004016112fe91906131ef565b60206040518083038186803b15801561131657600080fd5b505afa15801561132a573d6000803e3d6000fd5b505050506040513d601f19601f8201168201806040525081019061134e9190612da3565b61238290919063ffffffff16565b905060008114611433578173ffffffffffffffffffffffffffffffffffffffff1663a9059cbb33836040518363ffffffff1660e01b81526004016113a19291906132fc565b602060405180830381600087803b1580156113bb57600080fd5b505af11580156113cf573d6000803e3d6000fd5b505050506040513d601f19601f820116820180604052508101906113f39190612b4e565b611432576040517f08c379a000000000000000000000000000000000000000000000000000000000815260040161142990613542565b60405180910390fd5b5b50611594565b60008173ffffffffffffffffffffffffffffffffffffffff166370a08231306040518263ffffffff1660e01b815260040161147491906131ef565b60206040518083038186803b15801561148c57600080fd5b505afa1580156114a0573d6000803e3d6000fd5b505050506040513d601f19601f820116820180604052508101906114c49190612da3565b90508173ffffffffffffffffffffffffffffffffffffffff1663a9059cbb33836040518363ffffffff1660e01b81526004016115019291906132fc565b602060405180830381600087803b15801561151b57600080fd5b505af115801561152f573d6000803e3d6000fd5b505050506040513d601f19601f820116820180604052508101906115539190612b4e565b611592576040517f08c379a000000000000000000000000000000000000000000000000000000000815260040161158990613542565b60405180910390fd5b505b50565b6000606a60008473ffffffffffffffffffffffffffffffffffffffff1673ffffffffffffffffffffffffffffffffffffffff16815260200190815260200160002060008373ffffffffffffffffffffffffffffffffffffffff1673ffffffffffffffffffffffffffffffffffffffff16815260200190815260200160002060009054906101000a900460ff16905092915050565b600061163683611d12565b90503373ffffffffffffffffffffffffffffffffffffffff1661165b8260001c61096c565b73ffffffffffffffffffffffffffffffffffffffff16146116b1576040517f08c379a00000000000000000000000000000000000000000000000000000000081526004016116a8906135c2565b60405180910390fd5b6116d782609960008481526020019081526020016000205461238290919063ffffffff16565b60996000838152602001908152602001600020819055506117038260985461238290919063ffffffff16565b609881905550609760009054906101000a900473ffffffffffffffffffffffffffffffffffffffff1673ffffffffffffffffffffffffffffffffffffffff1663a9059cbb33846040518363ffffffff1660e01b81526004016117669291906132fc565b602060405180830381600087803b15801561178057600080fd5b505af1158015611794573d6000803e3d6000fd5b505050506040513d601f19601f820116820180604052508101906117b89190612b4e565b6117f7576040517f08c379a00000000000000000000000000000000000000000000000000000000081526004016117ee90613542565b60405180910390fd5b505050565b60007f01ffc9a7000000000000000000000000000000000000000000000000000000007bffffffffffffffffffffffffffffffffffffffffffffffffffffffff1916827bffffffffffffffffffffffffffffffffffffffffffffffffffffffff1916149050919050565b60008073ffffffffffffffffffffffffffffffffffffffff166067600084815260200190815260200160002060009054906101000a900473ffffffffffffffffffffffffffffffffffffffff1673ffffffffffffffffffffffffffffffffffffffff1614159050919050565b600033905090565b816069600083815260200190815260200160002060006101000a81548173ffffffffffffffffffffffffffffffffffffffff021916908373ffffffffffffffffffffffffffffffffffffffff160217905550808273ffffffffffffffffffffffffffffffffffffffff1661194d8361096c565b73ffffffffffffffffffffffffffffffffffffffff167f8c5be1e5ebec7d5bd14f71427d1e84f3dd0314c0f7b2291e5b200ac8c7c3b92560405160405180910390a45050565b600061199e82611866565b6119dd576040517f08c379a00000000000000000000000000000000000000000000000000000000081526004016119d490613422565b60405180910390fd5b60006119e88361096c565b90508073ffffffffffffffffffffffffffffffffffffffff168473ffffffffffffffffffffffffffffffffffffffff161480611a5757508373ffffffffffffffffffffffffffffffffffffffff16611a3f84610723565b73ffffffffffffffffffffffffffffffffffffffff16145b80611a685750611a678185611597565b5b91505092915050565b8273ffffffffffffffffffffffffffffffffffffffff16611a918261096c565b73ffffffffffffffffffffffffffffffffffffffff1614611ae7576040517f08c379a0000000000000000000000000000000000000000000000000000000008152600401611ade90613382565b60405180910390fd5b600073ffffffffffffffffffffffffffffffffffffffff168273ffffffffffffffffffffffffffffffffffffffff161415611b57576040517f08c379a0000000000000000000000000000000000000000000000000000000008152600401611b4e906133e2565b60405180910390fd5b611b62838383612398565b611b6d6000826118da565b6001606860008573ffffffffffffffffffffffffffffffffffffffff1673ffffffffffffffffffffffffffffffffffffffff1681526020019081526020016000206000828254611bbd91906137b0565b925050819055506001606860008473ffffffffffffffffffffffffffffffffffffffff1673ffffffffffffffffffffffffffffffffffffffff1681526020019081526020016000206000828254611c149190613729565b92505081905550816067600083815260200190815260200160002060006101000a81548173ffffffffffffffffffffffffffffffffffffffff021916908373ffffffffffffffffffffffffffffffffffffffff160217905550808273ffffffffffffffffffffffffffffffffffffffff168473ffffffffffffffffffffffffffffffffffffffff167fddf252ad1be2c89b69c2b068fc378daa952ba7f163c4a11628f55a4df523b3ef60405160405180910390a4611cd383838361239d565b505050565b60008060006020840151915060408401519050606084015160001a92509193909250565b60008183611d0a9190613729565b905092915050565b600081604051602001611d2591906131b4565b604051602081830303815290604052805190602001209050919050565b8173ffffffffffffffffffffffffffffffffffffffff168373ffffffffffffffffffffffffffffffffffffffff161415611db1576040517f08c379a0000000000000000000000000000000000000000000000000000000008152600401611da890613402565b60405180910390fd5b80606a60008573ffffffffffffffffffffffffffffffffffffffff1673ffffffffffffffffffffffffffffffffffffffff16815260200190815260200160002060008473ffffffffffffffffffffffffffffffffffffffff1673ffffffffffffffffffffffffffffffffffffffff16815260200190815260200160002060006101000a81548160ff0219169083151502179055508173ffffffffffffffffffffffffffffffffffffffff168373ffffffffffffffffffffffffffffffffffffffff167f17307eab39ab6107e8899845ad3d59bd9653f200f220920489ca2b5937696c3183604051611ea29190613325565b60405180910390a3505050565b611eba848484611a71565b611ec6848484846123a2565b611f05576040517f08c379a0000000000000000000000000000000000000000000000000000000008152600401611efc90613362565b60405180910390fd5b50505050565b6000611f1630612539565b15905090565b600060019054906101000a900460ff16611f6b576040517f08c379a0000000000000000000000000000000000000000000000000000000008152600401611f62906135a2565b60405180910390fd5b611f75828261255c565b5050565b606060405180602001604052806000815250905090565b60606000821415611fd8576040518060400160405280600181526020017f30000000000000000000000000000000000000000000000000000000000000008152509050612138565b600082905060005b6000821461200a578080611ff390613926565b915050600a82612003919061377f565b9150611fe0565b60008167ffffffffffffffff81111561204c577f4e487b7100000000000000000000000000000000000000000000000000000000600052604160045260246000fd5b6040519080825280601f01601f19166020018201604052801561207e5781602001600182028036833780820191505090505b5090505b600085146121315760018261209791906137b0565b9150600a856120a6919061396f565b60306120b29190613729565b60f81b8183815181106120ee577f4e487b7100000000000000000000000000000000000000000000000000000000600052603260045260246000fd5b60200101907effffffffffffffffffffffffffffffffffffffffffffffffffffffffffffff1916908160001a905350600a8561212a919061377f565b9450612082565b8093505050505b919050565b6060604482511015612186576040518060400160405280601d81526020017f5472616e73616374696f6e2072657665727465642073696c656e746c7900000081525090506121a3565b600482019150818060200190518101906121a09190612ce5565b90505b919050565b600073ffffffffffffffffffffffffffffffffffffffff168273ffffffffffffffffffffffffffffffffffffffff161415612218576040517f08c379a000000000000000000000000000000000000000000000000000000000815260040161220f906134e2565b60405180910390fd5b61222181611866565b15612261576040517f08c379a0000000000000000000000000000000000000000000000000000000008152600401612258906133a2565b60405180910390fd5b61226d60008383612398565b6001606860008473ffffffffffffffffffffffffffffffffffffffff1673ffffffffffffffffffffffffffffffffffffffff16815260200190815260200160002060008282546122bd9190613729565b92505081905550816067600083815260200190815260200160002060006101000a81548173ffffffffffffffffffffffffffffffffffffffff021916908373ffffffffffffffffffffffffffffffffffffffff160217905550808273ffffffffffffffffffffffffffffffffffffffff16600073ffffffffffffffffffffffffffffffffffffffff167fddf252ad1be2c89b69c2b068fc378daa952ba7f163c4a11628f55a4df523b3ef60405160405180910390a461237e6000838361239d565b5050565b6000818361239091906137b0565b905092915050565b505050565b505050565b60006123c38473ffffffffffffffffffffffffffffffffffffffff16612539565b1561252c578373ffffffffffffffffffffffffffffffffffffffff1663150b7a026123ec6118d2565b8786866040518563ffffffff1660e01b815260040161240e9493929190613241565b602060405180830381600087803b15801561242857600080fd5b505af192505050801561245957506040513d601f19601f820116820180604052508101906124569190612bc9565b60015b6124dc573d8060008114612489576040519150601f19603f3d011682016040523d82523d6000602084013e61248e565b606091505b506000815114156124d4576040517f08c379a00000000000000000000000000000000000000000000000000000000081526004016124cb90613362565b60405180910390fd5b805181602001fd5b63150b7a0260e01b7bffffffffffffffffffffffffffffffffffffffffffffffffffffffff1916817bffffffffffffffffffffffffffffffffffffffffffffffffffffffff191614915050612531565b600190505b949350505050565b6000808273ffffffffffffffffffffffffffffffffffffffff163b119050919050565b600060019054906101000a900460ff166125ab576040517f08c379a00000000000000000000000000000000000000000000000000000000081526004016125a2906135a2565b60405180910390fd5b81606590805190602001906125c19291906125dd565b5080606690805190602001906125d89291906125dd565b505050565b8280546125e9906138c3565b90600052602060002090601f01602090048101928261260b5760008555612652565b82601f1061262457805160ff1916838001178555612652565b82800160010185558215612652579182015b82811115612651578251825591602001919060010190612636565b5b50905061265f9190612663565b5090565b5b8082111561267c576000816000905550600101612664565b5090565b600061269361268e84613679565b613654565b9050828152602081018484840111156126ab57600080fd5b6126b6848285613881565b509392505050565b60006126d16126cc846136aa565b613654565b9050828152602081018484840111156126e957600080fd5b6126f4848285613881565b509392505050565b600061270f61270a846136aa565b613654565b90508281526020810184848401111561272757600080fd5b612732848285613890565b509392505050565b60008135905061274981613f8f565b92915050565b60008083601f84011261276157600080fd5b8235905067ffffffffffffffff81111561277a57600080fd5b60208301915083602082028301111561279257600080fd5b9250929050565b6000813590506127a881613fa6565b92915050565b6000815190506127bd81613fa6565b92915050565b6000813590506127d281613fbd565b92915050565b6000813590506127e781613fd4565b92915050565b6000815190506127fc81613fd4565b92915050565b600082601f83011261281357600080fd5b8135612823848260208601612680565b91505092915050565b60008135905061283b81613feb565b92915050565b600082601f83011261285257600080fd5b81356128628482602086016126be565b91505092915050565b600082601f83011261287c57600080fd5b815161288c8482602086016126fc565b91505092915050565b6000813590506128a481614002565b92915050565b6000815190506128b981614002565b92915050565b6000813590506128ce81614019565b92915050565b6000602082840312156128e657600080fd5b60006128f48482850161273a565b91505092915050565b6000806040838503121561291057600080fd5b600061291e8582860161273a565b925050602061292f8582860161273a565b9150509250929050565b60008060006060848603121561294e57600080fd5b600061295c8682870161273a565b935050602061296d8682870161273a565b925050604061297e86828701612895565b9150509250925092565b6000806000806080858703121561299e57600080fd5b60006129ac8782880161273a565b94505060206129bd8782880161273a565b93505060406129ce87828801612895565b925050606085013567ffffffffffffffff8111156129eb57600080fd5b6129f787828801612802565b91505092959194509250565b60008060408385031215612a1657600080fd5b6000612a248582860161273a565b9250506020612a3585828601612799565b9150509250929050565b60008060408385031215612a5257600080fd5b6000612a608582860161273a565b9250506020612a7185828601612895565b9150509250929050565b60008060008060808587031215612a9157600080fd5b6000612a9f8782880161273a565b9450506020612ab087828801612895565b9350506040612ac187828801612895565b925050606085013567ffffffffffffffff811115612ade57600080fd5b612aea87828801612802565b91505092959194509250565b600080600060408486031215612b0b57600080fd5b600084013567ffffffffffffffff811115612b2557600080fd5b612b318682870161274f565b93509350506020612b4486828701612799565b9150509250925092565b600060208284031215612b6057600080fd5b6000612b6e848285016127ae565b91505092915050565b600060208284031215612b8957600080fd5b6000612b97848285016127c3565b91505092915050565b600060208284031215612bb257600080fd5b6000612bc0848285016127d8565b91505092915050565b600060208284031215612bdb57600080fd5b6000612be9848285016127ed565b91505092915050565b600080600080600080600080610100898b031215612c0f57600080fd5b6000612c1d8b828c0161282c565b9850506020612c2e8b828c0161273a565b9750506040612c3f8b828c0161273a565b9650506060612c508b828c01612895565b9550506080612c618b828c01612895565b94505060a0612c728b828c016128bf565b93505060c0612c838b828c016127c3565b92505060e0612c948b828c016127c3565b9150509295985092959890939650565b600060208284031215612cb657600080fd5b600082013567ffffffffffffffff811115612cd057600080fd5b612cdc84828501612841565b91505092915050565b600060208284031215612cf757600080fd5b600082015167ffffffffffffffff811115612d1157600080fd5b612d1d8482850161286b565b91505092915050565b60008060408385031215612d3957600080fd5b600083013567ffffffffffffffff811115612d5357600080fd5b612d5f85828601612841565b9250506020612d7085828601612895565b9150509250929050565b600060208284031215612d8c57600080fd5b6000612d9a84828501612895565b91505092915050565b600060208284031215612db557600080fd5b6000612dc3848285016128aa565b91505092915050565b612dd5816137e4565b82525050565b612de4816137f6565b82525050565b612df381613802565b82525050565b6000612e058385613702565b9350612e12838584613881565b82840190509392505050565b6000612e29826136db565b612e3381856136f1565b9350612e43818560208601613890565b612e4c81613a5c565b840191505092915050565b6000612e62826136e6565b612e6c818561370d565b9350612e7c818560208601613890565b612e8581613a5c565b840191505092915050565b6000612e9b826136e6565b612ea5818561371e565b9350612eb5818560208601613890565b80840191505092915050565b6000612ece60328361370d565b9150612ed982613a6d565b604082019050919050565b6000612ef160258361370d565b9150612efc82613abc565b604082019050919050565b6000612f14601c8361370d565b9150612f1f82613b0b565b602082019050919050565b6000612f37600d8361370d565b9150612f4282613b34565b602082019050919050565b6000612f5a60248361370d565b9150612f6582613b5d565b604082019050919050565b6000612f7d60198361370d565b9150612f8882613bac565b602082019050919050565b6000612fa0602c8361370d565b9150612fab82613bd5565b604082019050919050565b6000612fc360148361370d565b9150612fce82613c24565b602082019050919050565b6000612fe660388361370d565b9150612ff182613c4d565b604082019050919050565b6000613009602a8361370d565b915061301482613c9c565b604082019050919050565b600061302c60298361370d565b915061303782613ceb565b604082019050919050565b600061304f602e8361370d565b915061305a82613d3a565b604082019050919050565b600061307260208361370d565b915061307d82613d89565b602082019050919050565b6000613095602c8361370d565b91506130a082613db2565b604082019050919050565b60006130b8602f8361370d565b91506130c382613e01565b604082019050919050565b60006130db60098361370d565b91506130e682613e50565b602082019050919050565b60006130fe60218361370d565b915061310982613e79565b604082019050919050565b600061312160318361370d565b915061312c82613ec8565b604082019050919050565b6000613144602b8361370d565b915061314f82613f17565b604082019050919050565b600061316760068361370d565b915061317282613f66565b602082019050919050565b6131868161386a565b82525050565b61319581613874565b82525050565b60006131a8828486612df9565b91508190509392505050565b60006131c08284612e90565b915081905092915050565b60006131d78285612e90565b91506131e38284612e90565b91508190509392505050565b60006020820190506132046000830184612dcc565b92915050565b600060608201905061321f6000830186612dcc565b61322c6020830185612dcc565b613239604083018461317d565b949350505050565b60006080820190506132566000830187612dcc565b6132636020830186612dcc565b613270604083018561317d565b81810360608301526132828184612e1e565b905095945050505050565b600060e0820190506132a2600083018a612dcc565b6132af6020830189612dcc565b6132bc604083018861317d565b6132c9606083018761317d565b6132d6608083018661318c565b6132e360a0830185612dea565b6132f060c0830184612dea565b98975050505050505050565b60006040820190506133116000830185612dcc565b61331e602083018461317d565b9392505050565b600060208201905061333a6000830184612ddb565b92915050565b6000602082019050818103600083015261335a8184612e57565b905092915050565b6000602082019050818103600083015261337b81612ec1565b9050919050565b6000602082019050818103600083015261339b81612ee4565b9050919050565b600060208201905081810360008301526133bb81612f07565b9050919050565b600060208201905081810360008301526133db81612f2a565b9050919050565b600060208201905081810360008301526133fb81612f4d565b9050919050565b6000602082019050818103600083015261341b81612f70565b9050919050565b6000602082019050818103600083015261343b81612f93565b9050919050565b6000602082019050818103600083015261345b81612fb6565b9050919050565b6000602082019050818103600083015261347b81612fd9565b9050919050565b6000602082019050818103600083015261349b81612ffc565b9050919050565b600060208201905081810360008301526134bb8161301f565b9050919050565b600060208201905081810360008301526134db81613042565b9050919050565b600060208201905081810360008301526134fb81613065565b9050919050565b6000602082019050818103600083015261351b81613088565b9050919050565b6000602082019050818103600083015261353b816130ab565b9050919050565b6000602082019050818103600083015261355b816130ce565b9050919050565b6000602082019050818103600083015261357b816130f1565b9050919050565b6000602082019050818103600083015261359b81613114565b9050919050565b600060208201905081810360008301526135bb81613137565b9050919050565b600060208201905081810360008301526135db8161315a565b9050919050565b60006020820190506135f7600083018461317d565b92915050565b6000808335600160200384360303811261361657600080fd5b80840192508235915067ffffffffffffffff82111561363457600080fd5b60208301925060018202360383131561364c57600080fd5b509250929050565b600061365e61366f565b905061366a82826138f5565b919050565b6000604051905090565b600067ffffffffffffffff82111561369457613693613a2d565b5b61369d82613a5c565b9050602081019050919050565b600067ffffffffffffffff8211156136c5576136c4613a2d565b5b6136ce82613a5c565b9050602081019050919050565b600081519050919050565b600081519050919050565b600082825260208201905092915050565b600081905092915050565b600082825260208201905092915050565b600081905092915050565b60006137348261386a565b915061373f8361386a565b9250827fffffffffffffffffffffffffffffffffffffffffffffffffffffffffffffffff03821115613774576137736139a0565b5b828201905092915050565b600061378a8261386a565b91506137958361386a565b9250826137a5576137a46139cf565b5b828204905092915050565b60006137bb8261386a565b91506137c68361386a565b9250828210156137d9576137d86139a0565b5b828203905092915050565b60006137ef8261384a565b9050919050565b60008115159050919050565b6000819050919050565b60007fffffffff0000000000000000000000000000000000000000000000000000000082169050919050565b6000613843826137e4565b9050919050565b600073ffffffffffffffffffffffffffffffffffffffff82169050919050565b6000819050919050565b600060ff82169050919050565b82818337600083830152505050565b60005b838110156138ae578082015181840152602081019050613893565b838111156138bd576000848401525b50505050565b600060028204905060018216806138db57607f821691505b602082108114156138ef576138ee6139fe565b5b50919050565b6138fe82613a5c565b810181811067ffffffffffffffff8211171561391d5761391c613a2d565b5b80604052505050565b60006139318261386a565b91507fffffffffffffffffffffffffffffffffffffffffffffffffffffffffffffffff821415613964576139636139a0565b5b600182019050919050565b600061397a8261386a565b91506139858361386a565b925082613995576139946139cf565b5b828206905092915050565b7f4e487b7100000000000000000000000000000000000000000000000000000000600052601160045260246000fd5b7f4e487b7100000000000000000000000000000000000000000000000000000000600052601260045260246000fd5b7f4e487b7100000000000000000000000000000000000000000000000000000000600052602260045260246000fd5b7f4e487b7100000000000000000000000000000000000000000000000000000000600052604160045260246000fd5b6000601f19601f8301169050919050565b7f4552433732313a207472616e7366657220746f206e6f6e20455243373231526560008201527f63656976657220696d706c656d656e7465720000000000000000000000000000602082015250565b7f4552433732313a207472616e736665722066726f6d20696e636f72726563742060008201527f6f776e6572000000000000000000000000000000000000000000000000000000602082015250565b7f4552433732313a20746f6b656e20616c7265616479206d696e74656400000000600082015250565b7f217472616e7366657246726f6d00000000000000000000000000000000000000600082015250565b7f4552433732313a207472616e7366657220746f20746865207a65726f2061646460008201527f7265737300000000000000000000000000000000000000000000000000000000602082015250565b7f4552433732313a20617070726f766520746f2063616c6c657200000000000000600082015250565b7f4552433732313a206f70657261746f7220717565727920666f72206e6f6e657860008201527f697374656e7420746f6b656e0000000000000000000000000000000000000000602082015250565b7f216d756c7469616464722d617661696c61626c65000000000000000000000000600082015250565b7f4552433732313a20617070726f76652063616c6c6572206973206e6f74206f7760008201527f6e6572206e6f7220617070726f76656420666f7220616c6c0000000000000000602082015250565b7f4552433732313a2062616c616e636520717565727920666f7220746865207a6560008201527f726f206164647265737300000000000000000000000000000000000000000000602082015250565b7f4552433732313a206f776e657220717565727920666f72206e6f6e657869737460008201527f656e7420746f6b656e0000000000000000000000000000000000000000000000602082015250565b7f496e697469616c697a61626c653a20636f6e747261637420697320616c72656160008201527f647920696e697469616c697a6564000000000000000000000000000000000000602082015250565b7f4552433732313a206d696e7420746f20746865207a65726f2061646472657373600082015250565b7f4552433732313a20617070726f76656420717565727920666f72206e6f6e657860008201527f697374656e7420746f6b656e0000000000000000000000000000000000000000602082015250565b7f4552433732314d657461646174613a2055524920717565727920666f72206e6f60008201527f6e6578697374656e7420746f6b656e0000000000000000000000000000000000602082015250565b7f217472616e736665720000000000000000000000000000000000000000000000600082015250565b7f4552433732313a20617070726f76616c20746f2063757272656e74206f776e6560008201527f7200000000000000000000000000000000000000000000000000000000000000602082015250565b7f4552433732313a207472616e736665722063616c6c6572206973206e6f74206f60008201527f776e6572206e6f7220617070726f766564000000000000000000000000000000602082015250565b7f496e697469616c697a61626c653a20636f6e7472616374206973206e6f74206960008201527f6e697469616c697a696e67000000000000000000000000000000000000000000602082015250565b7f216f776e65720000000000000000000000000000000000000000000000000000600082015250565b613f98816137e4565b8114613fa357600080fd5b50565b613faf816137f6565b8114613fba57600080fd5b50565b613fc681613802565b8114613fd157600080fd5b50565b613fdd8161380c565b8114613fe857600080fd5b50565b613ff481613838565b8114613fff57600080fd5b50565b61400b8161386a565b811461401657600080fd5b50565b61402281613874565b811461402d57600080fd5b5056fea2646970667358221220ea1dc873f8eac6a1d24600faceefb6251eaf24e76c8c7b0955f8c3284586989864736f6c63430008040033",
  "linkReferences": {},
  "deployedLinkReferences": {}
}