{
  "_format": "hh-sol-artifact-1",
  "contractName": "BaseBoringBatchable",
  "sourceName": "@boringcrypto/boring-solidity/contracts/BoringBatchable.sol",
  "abi": [
    {
      "inputs": [
        {
          "internalType": "bytes[]",
          "name": "calls",
          "type": "bytes[]"
        },
        {
          "internalType": "bool",
          "name": "revertOnFail",
          "type": "bool"
        }
      ],
      "name": "batch",
      "outputs": [],
      "stateMutability": "payable",
      "type": "function"
    }
  ],
  "bytecode": "0x608060405234801561001057600080fd5b5061063b806100206000396000f3fe60806040526004361061001e5760003560e01c8063d2423b5114610023575b600080fd5b61003d600480360381019061003891906102a7565b61003f565b005b60005b8383905081101561016f576000803073ffffffffffffffffffffffffffffffffffffffff168686858181106100a0577f4e487b7100000000000000000000000000000000000000000000000000000000600052603260045260246000fd5b90506020028101906100b291906103d9565b6040516100c092919061039e565b600060405180830381855af49150503d80600081146100fb576040519150601f19603f3d011682016040523d82523d6000602084013e610100565b606091505b5091509150811580156101105750835b1561015a5761011e81610175565b6040517f08c379a000000000000000000000000000000000000000000000000000000000815260040161015191906103b7565b60405180910390fd5b5050808061016790610536565b915050610042565b50505050565b60606044825110156101be576040518060400160405280601d81526020017f5472616e73616374696f6e2072657665727465642073696c656e746c7900000081525090506101db565b600482019150818060200190518101906101d891906102ff565b90505b919050565b60006101f36101ee84610455565b610430565b90508281526020810184848401111561020b57600080fd5b6102168482856104d2565b509392505050565b60008083601f84011261023057600080fd5b8235905067ffffffffffffffff81111561024957600080fd5b60208301915083602082028301111561026157600080fd5b9250929050565b600081359050610277816105ee565b92915050565b600082601f83011261028e57600080fd5b815161029e8482602086016101e0565b91505092915050565b6000806000604084860312156102bc57600080fd5b600084013567ffffffffffffffff8111156102d657600080fd5b6102e28682870161021e565b935093505060206102f586828701610268565b9150509250925092565b60006020828403121561031157600080fd5b600082015167ffffffffffffffff81111561032b57600080fd5b6103378482850161027d565b91505092915050565b600061034c8385610491565b93506103598385846104c3565b82840190509392505050565b600061037082610486565b61037a818561049c565b935061038a8185602086016104d2565b610393816105dd565b840191505092915050565b60006103ab828486610340565b91508190509392505050565b600060208201905081810360008301526103d18184610365565b905092915050565b600080833560016020038436030381126103f257600080fd5b80840192508235915067ffffffffffffffff82111561041057600080fd5b60208301925060018202360383131561042857600080fd5b509250929050565b600061043a61044b565b90506104468282610505565b919050565b6000604051905090565b600067ffffffffffffffff8211156104705761046f6105ae565b5b610479826105dd565b9050602081019050919050565b600081519050919050565b600081905092915050565b600082825260208201905092915050565b60008115159050919050565b6000819050919050565b82818337600083830152505050565b60005b838110156104f05780820151818401526020810190506104d5565b838111156104ff576000848401525b50505050565b61050e826105dd565b810181811067ffffffffffffffff8211171561052d5761052c6105ae565b5b80604052505050565b6000610541826104b9565b91507fffffffffffffffffffffffffffffffffffffffffffffffffffffffffffffffff8214156105745761057361057f565b5b600182019050919050565b7f4e487b7100000000000000000000000000000000000000000000000000000000600052601160045260246000fd5b7f4e487b7100000000000000000000000000000000000000000000000000000000600052604160045260246000fd5b6000601f19601f8301169050919050565b6105f7816104ad565b811461060257600080fd5b5056fea264697066735822122054226238cc246bab83c8116eba7f27c5747fbed104630535d2fa881cf3ee6df264736f6c63430008040033",
  "linkReferences": {},
  "deployedLinkReferences": {}
}