{
  "_format": "hh-sol-artifact-1",
  "contractName": "BoringBatchable",
  "sourceName": "@boringcrypto/boring-solidity/contracts/BoringBatchable.sol",
  "abi": [
    {
      "inputs": [
        {
          "internalType": "bytes[]",
          "name": "calls",
          "type": "bytes[]"
        },
        {
          "internalType": "bool",
          "name": "revertOnFail",
          "type": "bool"
        }
      ],
      "name": "batch",
      "outputs": [],
      "stateMutability": "payable",
      "type": "function"
    },
    {
      "inputs": [
        {
          "internalType": "contract IERC20",
          "name": "token",
          "type": "address"
        },
        {
          "internalType": "address",
          "name": "from",
          "type": "address"
        },
        {
          "internalType": "address",
          "name": "to",
          "type": "address"
        },
        {
          "internalType": "uint256",
          "name": "amount",
          "type": "uint256"
        },
        {
          "internalType": "uint256",
          "name": "deadline",
          "type": "uint256"
        },
        {
          "internalType": "uint8",
          "name": "v",
          "type": "uint8"
        },
        {
          "internalType": "bytes32",
          "name": "r",
          "type": "bytes32"
        },
        {
          "internalType": "bytes32",
          "name": "s",
          "type": "bytes32"
        }
      ],
      "name": "permitToken",
      "outputs": [],
      "stateMutability": "nonpayable",
      "type": "function"
    }
  ],
  "bytecode": "0x608060405234801561001057600080fd5b50610984806100206000396000f3fe6080604052600436106100295760003560e01c80637c516e941461002e578063d2423b5114610057575b600080fd5b34801561003a57600080fd5b506100556004803603810190610050919061041d565b610073565b005b610071600480360381019061006c91906103c5565b6100f4565b005b8773ffffffffffffffffffffffffffffffffffffffff1663d505accf888888888888886040518863ffffffff1660e01b81526004016100b897969594939291906105c3565b600060405180830381600087803b1580156100d257600080fd5b505af11580156100e6573d6000803e3d6000fd5b505050505050505050505050565b60005b83839050811015610224576000803073ffffffffffffffffffffffffffffffffffffffff16868685818110610155577f4e487b7100000000000000000000000000000000000000000000000000000000600052603260045260246000fd5b90506020028101906101679190610654565b6040516101759291906105aa565b600060405180830381855af49150503d80600081146101b0576040519150601f19603f3d011682016040523d82523d6000602084013e6101b5565b606091505b5091509150811580156101c55750835b1561020f576101d38161022a565b6040517f08c379a00000000000000000000000000000000000000000000000000000000081526004016102069190610632565b60405180910390fd5b5050808061021c9061080c565b9150506100f7565b50505050565b6060604482511015610273576040518060400160405280601d81526020017f5472616e73616374696f6e2072657665727465642073696c656e746c790000008152509050610290565b6004820191508180602001905181019061028d91906104cf565b90505b919050565b60006102a86102a3846106d0565b6106ab565b9050828152602081018484840111156102c057600080fd5b6102cb8482856107a8565b509392505050565b6000813590506102e2816108c4565b92915050565b60008083601f8401126102fa57600080fd5b8235905067ffffffffffffffff81111561031357600080fd5b60208301915083602082028301111561032b57600080fd5b9250929050565b600081359050610341816108db565b92915050565b600081359050610356816108f2565b92915050565b60008135905061036b81610909565b92915050565b600082601f83011261038257600080fd5b8151610392848260208601610295565b91505092915050565b6000813590506103aa81610920565b92915050565b6000813590506103bf81610937565b92915050565b6000806000604084860312156103da57600080fd5b600084013567ffffffffffffffff8111156103f457600080fd5b610400868287016102e8565b9350935050602061041386828701610332565b9150509250925092565b600080600080600080600080610100898b03121561043a57600080fd5b60006104488b828c0161035c565b98505060206104598b828c016102d3565b975050604061046a8b828c016102d3565b965050606061047b8b828c0161039b565b955050608061048c8b828c0161039b565b94505060a061049d8b828c016103b0565b93505060c06104ae8b828c01610347565b92505060e06104bf8b828c01610347565b9150509295985092959890939650565b6000602082840312156104e157600080fd5b600082015167ffffffffffffffff8111156104fb57600080fd5b61050784828501610371565b91505092915050565b61051981610728565b82525050565b61052881610746565b82525050565b600061053a838561070c565b9350610547838584610799565b82840190509392505050565b600061055e82610701565b6105688185610717565b93506105788185602086016107a8565b610581816108b3565b840191505092915050565b61059581610782565b82525050565b6105a48161078c565b82525050565b60006105b782848661052e565b91508190509392505050565b600060e0820190506105d8600083018a610510565b6105e56020830189610510565b6105f2604083018861058c565b6105ff606083018761058c565b61060c608083018661059b565b61061960a083018561051f565b61062660c083018461051f565b98975050505050505050565b6000602082019050818103600083015261064c8184610553565b905092915050565b6000808335600160200384360303811261066d57600080fd5b80840192508235915067ffffffffffffffff82111561068b57600080fd5b6020830192506001820236038313156106a357600080fd5b509250929050565b60006106b56106c6565b90506106c182826107db565b919050565b6000604051905090565b600067ffffffffffffffff8211156106eb576106ea610884565b5b6106f4826108b3565b9050602081019050919050565b600081519050919050565b600081905092915050565b600082825260208201905092915050565b600061073382610762565b9050919050565b60008115159050919050565b6000819050919050565b600061075b82610728565b9050919050565b600073ffffffffffffffffffffffffffffffffffffffff82169050919050565b6000819050919050565b600060ff82169050919050565b82818337600083830152505050565b60005b838110156107c65780820151818401526020810190506107ab565b838111156107d5576000848401525b50505050565b6107e4826108b3565b810181811067ffffffffffffffff8211171561080357610802610884565b5b80604052505050565b600061081782610782565b91507fffffffffffffffffffffffffffffffffffffffffffffffffffffffffffffffff82141561084a57610849610855565b5b600182019050919050565b7f4e487b7100000000000000000000000000000000000000000000000000000000600052601160045260246000fd5b7f4e487b7100000000000000000000000000000000000000000000000000000000600052604160045260246000fd5b6000601f19601f8301169050919050565b6108cd81610728565b81146108d857600080fd5b50565b6108e48161073a565b81146108ef57600080fd5b50565b6108fb81610746565b811461090657600080fd5b50565b61091281610750565b811461091d57600080fd5b50565b61092981610782565b811461093457600080fd5b50565b6109408161078c565b811461094b57600080fd5b5056fea2646970667358221220cd8b03640f8bef50427a933ed208e9be62b53e0e36fabb09766df1c9caa210b364736f6c63430008040033",
  "linkReferences": {},
  "deployedLinkReferences": {}
}