{
  "_format": "hh-sol-artifact-1",
  "contractName": "QU",
  "sourceName": "contracts/token/QU.sol",
  "abi": [
    {
      "anonymous": false,
      "inputs": [
        {
          "indexed": true,
          "internalType": "address",
          "name": "owner",
          "type": "address"
        },
        {
          "indexed": true,
          "internalType": "address",
          "name": "spender",
          "type": "address"
        },
        {
          "indexed": false,
          "internalType": "uint256",
          "name": "value",
          "type": "uint256"
        }
      ],
      "name": "Approval",
      "type": "event"
    },
    {
      "anonymous": false,
      "inputs": [
        {
          "indexed": true,
          "internalType": "address",
          "name": "from",
          "type": "address"
        },
        {
          "indexed": true,
          "internalType": "address",
          "name": "to",
          "type": "address"
        },
        {
          "indexed": false,
          "internalType": "uint256",
          "name": "value",
          "type": "uint256"
        }
      ],
      "name": "Transfer",
      "type": "event"
    },
    {
      "inputs": [],
      "name": "DOMAIN_SEPARATOR",
      "outputs": [
        {
          "internalType": "bytes32",
          "name": "",
          "type": "bytes32"
        }
      ],
      "stateMutability": "view",
      "type": "function"
    },
    {
      "inputs": [
        {
          "internalType": "address",
          "name": "owner",
          "type": "address"
        },
        {
          "internalType": "address",
          "name": "spender",
          "type": "address"
        }
      ],
      "name": "allowance",
      "outputs": [
        {
          "internalType": "uint256",
          "name": "",
          "type": "uint256"
        }
      ],
      "stateMutability": "view",
      "type": "function"
    },
    {
      "inputs": [
        {
          "internalType": "address",
          "name": "spender",
          "type": "address"
        },
        {
          "internalType": "uint256",
          "name": "amount",
          "type": "uint256"
        }
      ],
      "name": "approve",
      "outputs": [
        {
          "internalType": "bool",
          "name": "",
          "type": "bool"
        }
      ],
      "stateMutability": "nonpayable",
      "type": "function"
    },
    {
      "inputs": [
        {
          "internalType": "address",
          "name": "account",
          "type": "address"
        }
      ],
      "name": "balanceOf",
      "outputs": [
        {
          "internalType": "uint256",
          "name": "",
          "type": "uint256"
        }
      ],
      "stateMutability": "view",
      "type": "function"
    },
    {
      "inputs": [],
      "name": "decimals",
      "outputs": [
        {
          "internalType": "uint8",
          "name": "",
          "type": "uint8"
        }
      ],
      "stateMutability": "view",
      "type": "function"
    },
    {
      "inputs": [
        {
          "internalType": "address",
          "name": "spender",
          "type": "address"
        },
        {
          "internalType": "uint256",
          "name": "subtractedValue",
          "type": "uint256"
        }
      ],
      "name": "decreaseAllowance",
      "outputs": [
        {
          "internalType": "bool",
          "name": "",
          "type": "bool"
        }
      ],
      "stateMutability": "nonpayable",
      "type": "function"
    },
    {
      "inputs": [
        {
          "internalType": "address",
          "name": "spender",
          "type": "address"
        },
        {
          "internalType": "uint256",
          "name": "addedValue",
          "type": "uint256"
        }
      ],
      "name": "increaseAllowance",
      "outputs": [
        {
          "internalType": "bool",
          "name": "",
          "type": "bool"
        }
      ],
      "stateMutability": "nonpayable",
      "type": "function"
    },
    {
      "inputs": [
        {
          "internalType": "address",
          "name": "treasury",
          "type": "address"
        }
      ],
      "name": "initialize",
      "outputs": [],
      "stateMutability": "nonpayable",
      "type": "function"
    },
    {
      "inputs": [],
      "name": "name",
      "outputs": [
        {
          "internalType": "string",
          "name": "",
          "type": "string"
        }
      ],
      "stateMutability": "view",
      "type": "function"
    },
    {
      "inputs": [
        {
          "internalType": "address",
          "name": "owner",
          "type": "address"
        }
      ],
      "name": "nonces",
      "outputs": [
        {
          "internalType": "uint256",
          "name": "",
          "type": "uint256"
        }
      ],
      "stateMutability": "view",
      "type": "function"
    },
    {
      "inputs": [
        {
          "internalType": "address",
          "name": "owner",
          "type": "address"
        },
        {
          "internalType": "address",
          "name": "spender",
          "type": "address"
        },
        {
          "internalType": "uint256",
          "name": "value",
          "type": "uint256"
        },
        {
          "internalType": "uint256",
          "name": "deadline",
          "type": "uint256"
        },
        {
          "internalType": "uint8",
          "name": "v",
          "type": "uint8"
        },
        {
          "internalType": "bytes32",
          "name": "r",
          "type": "bytes32"
        },
        {
          "internalType": "bytes32",
          "name": "s",
          "type": "bytes32"
        }
      ],
      "name": "permit",
      "outputs": [],
      "stateMutability": "nonpayable",
      "type": "function"
    },
    {
      "inputs": [],
      "name": "symbol",
      "outputs": [
        {
          "internalType": "string",
          "name": "",
          "type": "string"
        }
      ],
      "stateMutability": "view",
      "type": "function"
    },
    {
      "inputs": [],
      "name": "totalSupply",
      "outputs": [
        {
          "internalType": "uint256",
          "name": "",
          "type": "uint256"
        }
      ],
      "stateMutability": "view",
      "type": "function"
    },
    {
      "inputs": [
        {
          "internalType": "address",
          "name": "to",
          "type": "address"
        },
        {
          "internalType": "uint256",
          "name": "amount",
          "type": "uint256"
        }
      ],
      "name": "transfer",
      "outputs": [
        {
          "internalType": "bool",
          "name": "",
          "type": "bool"
        }
      ],
      "stateMutability": "nonpayable",
      "type": "function"
    },
    {
      "inputs": [
        {
          "internalType": "address",
          "name": "from",
          "type": "address"
        },
        {
          "internalType": "address",
          "name": "to",
          "type": "address"
        },
        {
          "internalType": "uint256",
          "name": "amount",
          "type": "uint256"
        }
      ],
      "name": "transferFrom",
      "outputs": [
        {
          "internalType": "bool",
          "name": "",
          "type": "bool"
        }
      ],
      "stateMutability": "nonpayable",
      "type": "function"
    }
  ],
  "bytecode": "0x608060405234801561001057600080fd5b50612570806100206000396000f3fe608060405234801561001057600080fd5b50600436106100f55760003560e01c806370a0823111610097578063a9059cbb11610066578063a9059cbb146102b0578063c4d66de8146102e0578063d505accf146102fc578063dd62ed3e14610318576100f5565b806370a08231146102025780637ecebe001461023257806395d89b4114610262578063a457c2d714610280576100f5565b806323b872dd116100d357806323b872dd14610166578063313ce567146101965780633644e515146101b457806339509351146101d2576100f5565b806306fdde03146100fa578063095ea7b31461011857806318160ddd14610148575b600080fd5b610102610348565b60405161010f9190611d06565b60405180910390f35b610132600480360381019061012d9190611899565b6103da565b60405161013f9190611bd7565b60405180910390f35b6101506103fd565b60405161015d9190611f08565b60405180910390f35b610180600480360381019061017b91906117ac565b610407565b60405161018d9190611bd7565b60405180910390f35b61019e610436565b6040516101ab9190611f23565b60405180910390f35b6101bc61043f565b6040516101c99190611bf2565b60405180910390f35b6101ec60048036038101906101e79190611899565b61044e565b6040516101f99190611bd7565b60405180910390f35b61021c60048036038101906102179190611747565b6104f8565b6040516102299190611f08565b60405180910390f35b61024c60048036038101906102479190611747565b610541565b6040516102599190611f08565b60405180910390f35b61026a610591565b6040516102779190611d06565b60405180910390f35b61029a60048036038101906102959190611899565b610623565b6040516102a79190611bd7565b60405180910390f35b6102ca60048036038101906102c59190611899565b61070d565b6040516102d79190611bd7565b60405180910390f35b6102fa60048036038101906102f59190611747565b610730565b005b610316600480360381019061031191906117fb565b610786565b005b610332600480360381019061032d9190611770565b6108aa565b60405161033f9190611f08565b60405180910390f35b6060603680546103579061204d565b80601f01602080910402602001604051908101604052809291908181526020018280546103839061204d565b80156103d05780601f106103a5576101008083540402835291602001916103d0565b820191906000526020600020905b8154815290600101906020018083116103b357829003601f168201915b5050505050905090565b6000806103e5610931565b90506103f2818585610939565b600191505092915050565b6000603554905090565b600080610412610931565b905061041f858285610b04565b61042a858585610b90565b60019150509392505050565b60006012905090565b6000610449610e14565b905090565b600080610459610931565b90506104ed818585603460008673ffffffffffffffffffffffffffffffffffffffff1673ffffffffffffffffffffffffffffffffffffffff16815260200190815260200160002060008973ffffffffffffffffffffffffffffffffffffffff1673ffffffffffffffffffffffffffffffffffffffff168152602001908152602001600020546104e89190611f65565b610939565b600191505092915050565b6000603360008373ffffffffffffffffffffffffffffffffffffffff1673ffffffffffffffffffffffffffffffffffffffff168152602001908152602001600020549050919050565b600061058a609960008473ffffffffffffffffffffffffffffffffffffffff1673ffffffffffffffffffffffffffffffffffffffff168152602001908152602001600020610e54565b9050919050565b6060603780546105a09061204d565b80601f01602080910402602001604051908101604052809291908181526020018280546105cc9061204d565b80156106195780601f106105ee57610100808354040283529160200191610619565b820191906000526020600020905b8154815290600101906020018083116105fc57829003601f168201915b5050505050905090565b60008061062e610931565b90506000603460008373ffffffffffffffffffffffffffffffffffffffff1673ffffffffffffffffffffffffffffffffffffffff16815260200190815260200160002060008673ffffffffffffffffffffffffffffffffffffffff1673ffffffffffffffffffffffffffffffffffffffff168152602001908152602001600020549050838110156106f4576040517f08c379a00000000000000000000000000000000000000000000000000000000081526004016106eb90611ec8565b60405180910390fd5b6107018286868403610939565b60019250505092915050565b600080610718610931565b9050610725818585610b90565b600191505092915050565b61076e6040518060400160405280600281526020017f5155000000000000000000000000000000000000000000000000000000000000815250610e62565b610783816a52b7d2dcc80cd2e4000000610efc565b50565b834211156107c9576040517f08c379a00000000000000000000000000000000000000000000000000000000081526004016107c090611dc8565b60405180910390fd5b6000609a548888886107da8c61105d565b896040516020016107f096959493929190611c0d565b6040516020818303038152906040528051906020012090506000610813826110bb565b90506000610823828787876110d5565b90508973ffffffffffffffffffffffffffffffffffffffff168173ffffffffffffffffffffffffffffffffffffffff1614610893576040517f08c379a000000000000000000000000000000000000000000000000000000000815260040161088a90611e48565b60405180910390fd5b61089e8a8a8a610939565b50505050505050505050565b6000603460008473ffffffffffffffffffffffffffffffffffffffff1673ffffffffffffffffffffffffffffffffffffffff16815260200190815260200160002060008373ffffffffffffffffffffffffffffffffffffffff1673ffffffffffffffffffffffffffffffffffffffff16815260200190815260200160002054905092915050565b600033905090565b600073ffffffffffffffffffffffffffffffffffffffff168373ffffffffffffffffffffffffffffffffffffffff1614156109a9576040517f08c379a00000000000000000000000000000000000000000000000000000000081526004016109a090611e88565b60405180910390fd5b600073ffffffffffffffffffffffffffffffffffffffff168273ffffffffffffffffffffffffffffffffffffffff161415610a19576040517f08c379a0000000000000000000000000000000000000000000000000000000008152600401610a1090611d88565b60405180910390fd5b80603460008573ffffffffffffffffffffffffffffffffffffffff1673ffffffffffffffffffffffffffffffffffffffff16815260200190815260200160002060008473ffffffffffffffffffffffffffffffffffffffff1673ffffffffffffffffffffffffffffffffffffffff168152602001908152602001600020819055508173ffffffffffffffffffffffffffffffffffffffff168373ffffffffffffffffffffffffffffffffffffffff167f8c5be1e5ebec7d5bd14f71427d1e84f3dd0314c0f7b2291e5b200ac8c7c3b92583604051610af79190611f08565b60405180910390a3505050565b6000610b1084846108aa565b90507fffffffffffffffffffffffffffffffffffffffffffffffffffffffffffffffff8114610b8a5781811015610b7c576040517f08c379a0000000000000000000000000000000000000000000000000000000008152600401610b7390611da8565b60405180910390fd5b610b898484848403610939565b5b50505050565b600073ffffffffffffffffffffffffffffffffffffffff168373ffffffffffffffffffffffffffffffffffffffff161415610c00576040517f08c379a0000000000000000000000000000000000000000000000000000000008152600401610bf790611e68565b60405180910390fd5b600073ffffffffffffffffffffffffffffffffffffffff168273ffffffffffffffffffffffffffffffffffffffff161415610c70576040517f08c379a0000000000000000000000000000000000000000000000000000000008152600401610c6790611d48565b60405180910390fd5b610c7b838383611100565b6000603360008573ffffffffffffffffffffffffffffffffffffffff1673ffffffffffffffffffffffffffffffffffffffff16815260200190815260200160002054905081811015610d02576040517f08c379a0000000000000000000000000000000000000000000000000000000008152600401610cf990611de8565b60405180910390fd5b818103603360008673ffffffffffffffffffffffffffffffffffffffff1673ffffffffffffffffffffffffffffffffffffffff1681526020019081526020016000208190555081603360008573ffffffffffffffffffffffffffffffffffffffff1673ffffffffffffffffffffffffffffffffffffffff1681526020019081526020016000206000828254610d979190611f65565b925050819055508273ffffffffffffffffffffffffffffffffffffffff168473ffffffffffffffffffffffffffffffffffffffff167fddf252ad1be2c89b69c2b068fc378daa952ba7f163c4a11628f55a4df523b3ef84604051610dfb9190611f08565b60405180910390a3610e0e848484611105565b50505050565b6000610e4f7f8b73c3c69bb8fe3d512ecc4cf759cc79239f7b179b0ffacaa9a75d522b39400f610e4261110a565b610e4a611114565b61111e565b905090565b600081600001549050919050565b600060019054906101000a900460ff16610eb1576040517f08c379a0000000000000000000000000000000000000000000000000000000008152600401610ea890611ea8565b60405180910390fd5b610ef0816040518060400160405280600181526020017f3100000000000000000000000000000000000000000000000000000000000000815250611158565b610ef9816111d3565b50565b600073ffffffffffffffffffffffffffffffffffffffff168273ffffffffffffffffffffffffffffffffffffffff161415610f6c576040517f08c379a0000000000000000000000000000000000000000000000000000000008152600401610f6390611ee8565b60405180910390fd5b610f7860008383611100565b8060356000828254610f8a9190611f65565b9250508190555080603360008473ffffffffffffffffffffffffffffffffffffffff1673ffffffffffffffffffffffffffffffffffffffff1681526020019081526020016000206000828254610fe09190611f65565b925050819055508173ffffffffffffffffffffffffffffffffffffffff16600073ffffffffffffffffffffffffffffffffffffffff167fddf252ad1be2c89b69c2b068fc378daa952ba7f163c4a11628f55a4df523b3ef836040516110459190611f08565b60405180910390a361105960008383611105565b5050565b600080609960008473ffffffffffffffffffffffffffffffffffffffff1673ffffffffffffffffffffffffffffffffffffffff16815260200190815260200160002090506110aa81610e54565b91506110b58161124c565b50919050565b60006110ce6110c8610e14565b83611262565b9050919050565b60008060006110e687878787611295565b915091506110f3816113a2565b8192505050949350505050565b505050565b505050565b6000606554905090565b6000606654905090565b60008383834630604051602001611139959493929190611c6e565b6040516020818303038152906040528051906020012090509392505050565b600060019054906101000a900460ff166111a7576040517f08c379a000000000000000000000000000000000000000000000000000000000815260040161119e90611ea8565b60405180910390fd5b600082805190602001209050600082805190602001209050816065819055508060668190555050505050565b600060019054906101000a900460ff16611222576040517f08c379a000000000000000000000000000000000000000000000000000000000815260040161121990611ea8565b60405180910390fd5b7f6e71edae12b1b97f4d1f60370fef10105fa2faae0126114a169c64845d6126c9609a8190555050565b6001816000016000828254019250508190555050565b60008282604051602001611277929190611ba0565b60405160208183030381529060405280519060200120905092915050565b6000807f7fffffffffffffffffffffffffffffff5d576e7357a4501ddfe92f46681b20a08360001c11156112d0576000600391509150611399565b601b8560ff16141580156112e85750601c8560ff1614155b156112fa576000600491509150611399565b60006001878787876040516000815260200160405260405161131f9493929190611cc1565b6020604051602081039080840390855afa158015611341573d6000803e3d6000fd5b505050602060405103519050600073ffffffffffffffffffffffffffffffffffffffff168173ffffffffffffffffffffffffffffffffffffffff16141561139057600060019250925050611399565b80600092509250505b94509492505050565b600060048111156113dc577f4e487b7100000000000000000000000000000000000000000000000000000000600052602160045260246000fd5b816004811115611415577f4e487b7100000000000000000000000000000000000000000000000000000000600052602160045260246000fd5b1415611420576116f0565b6001600481111561145a577f4e487b7100000000000000000000000000000000000000000000000000000000600052602160045260246000fd5b816004811115611493577f4e487b7100000000000000000000000000000000000000000000000000000000600052602160045260246000fd5b14156114d4576040517f08c379a00000000000000000000000000000000000000000000000000000000081526004016114cb90611d28565b60405180910390fd5b6002600481111561150e577f4e487b7100000000000000000000000000000000000000000000000000000000600052602160045260246000fd5b816004811115611547577f4e487b7100000000000000000000000000000000000000000000000000000000600052602160045260246000fd5b1415611588576040517f08c379a000000000000000000000000000000000000000000000000000000000815260040161157f90611d68565b60405180910390fd5b600360048111156115c2577f4e487b7100000000000000000000000000000000000000000000000000000000600052602160045260246000fd5b8160048111156115fb577f4e487b7100000000000000000000000000000000000000000000000000000000600052602160045260246000fd5b141561163c576040517f08c379a000000000000000000000000000000000000000000000000000000000815260040161163390611e08565b60405180910390fd5b600480811115611675577f4e487b7100000000000000000000000000000000000000000000000000000000600052602160045260246000fd5b8160048111156116ae577f4e487b7100000000000000000000000000000000000000000000000000000000600052602160045260246000fd5b14156116ef576040517f08c379a00000000000000000000000000000000000000000000000000000000081526004016116e690611e28565b60405180910390fd5b5b50565b600081359050611702816124de565b92915050565b600081359050611717816124f5565b92915050565b60008135905061172c8161250c565b92915050565b60008135905061174181612523565b92915050565b60006020828403121561175957600080fd5b6000611767848285016116f3565b91505092915050565b6000806040838503121561178357600080fd5b6000611791858286016116f3565b92505060206117a2858286016116f3565b9150509250929050565b6000806000606084860312156117c157600080fd5b60006117cf868287016116f3565b93505060206117e0868287016116f3565b92505060406117f18682870161171d565b9150509250925092565b600080600080600080600060e0888a03121561181657600080fd5b60006118248a828b016116f3565b97505060206118358a828b016116f3565b96505060406118468a828b0161171d565b95505060606118578a828b0161171d565b94505060806118688a828b01611732565b93505060a06118798a828b01611708565b92505060c061188a8a828b01611708565b91505092959891949750929550565b600080604083850312156118ac57600080fd5b60006118ba858286016116f3565b92505060206118cb8582860161171d565b9150509250929050565b6118de81611fbb565b82525050565b6118ed81611fcd565b82525050565b6118fc81611fd9565b82525050565b61191361190e82611fd9565b61207f565b82525050565b600061192482611f3e565b61192e8185611f49565b935061193e81856020860161201a565b611947816120e7565b840191505092915050565b600061195f601883611f49565b915061196a826120f8565b602082019050919050565b6000611982602383611f49565b915061198d82612121565b604082019050919050565b60006119a5601f83611f49565b91506119b082612170565b602082019050919050565b60006119c8602283611f49565b91506119d382612199565b604082019050919050565b60006119eb600283611f5a565b91506119f6826121e8565b600282019050919050565b6000611a0e601d83611f49565b9150611a1982612211565b602082019050919050565b6000611a31601d83611f49565b9150611a3c8261223a565b602082019050919050565b6000611a54602683611f49565b9150611a5f82612263565b604082019050919050565b6000611a77602283611f49565b9150611a82826122b2565b604082019050919050565b6000611a9a602283611f49565b9150611aa582612301565b604082019050919050565b6000611abd601e83611f49565b9150611ac882612350565b602082019050919050565b6000611ae0602583611f49565b9150611aeb82612379565b604082019050919050565b6000611b03602483611f49565b9150611b0e826123c8565b604082019050919050565b6000611b26602b83611f49565b9150611b3182612417565b604082019050919050565b6000611b49602583611f49565b9150611b5482612466565b604082019050919050565b6000611b6c601f83611f49565b9150611b77826124b5565b602082019050919050565b611b8b81612003565b82525050565b611b9a8161200d565b82525050565b6000611bab826119de565b9150611bb78285611902565b602082019150611bc78284611902565b6020820191508190509392505050565b6000602082019050611bec60008301846118e4565b92915050565b6000602082019050611c0760008301846118f3565b92915050565b600060c082019050611c2260008301896118f3565b611c2f60208301886118d5565b611c3c60408301876118d5565b611c496060830186611b82565b611c566080830185611b82565b611c6360a0830184611b82565b979650505050505050565b600060a082019050611c8360008301886118f3565b611c9060208301876118f3565b611c9d60408301866118f3565b611caa6060830185611b82565b611cb760808301846118d5565b9695505050505050565b6000608082019050611cd660008301876118f3565b611ce36020830186611b91565b611cf060408301856118f3565b611cfd60608301846118f3565b95945050505050565b60006020820190508181036000830152611d208184611919565b905092915050565b60006020820190508181036000830152611d4181611952565b9050919050565b60006020820190508181036000830152611d6181611975565b9050919050565b60006020820190508181036000830152611d8181611998565b9050919050565b60006020820190508181036000830152611da1816119bb565b9050919050565b60006020820190508181036000830152611dc181611a01565b9050919050565b60006020820190508181036000830152611de181611a24565b9050919050565b60006020820190508181036000830152611e0181611a47565b9050919050565b60006020820190508181036000830152611e2181611a6a565b9050919050565b60006020820190508181036000830152611e4181611a8d565b9050919050565b60006020820190508181036000830152611e6181611ab0565b9050919050565b60006020820190508181036000830152611e8181611ad3565b9050919050565b60006020820190508181036000830152611ea181611af6565b9050919050565b60006020820190508181036000830152611ec181611b19565b9050919050565b60006020820190508181036000830152611ee181611b3c565b9050919050565b60006020820190508181036000830152611f0181611b5f565b9050919050565b6000602082019050611f1d6000830184611b82565b92915050565b6000602082019050611f386000830184611b91565b92915050565b600081519050919050565b600082825260208201905092915050565b600081905092915050565b6000611f7082612003565b9150611f7b83612003565b9250827fffffffffffffffffffffffffffffffffffffffffffffffffffffffffffffffff03821115611fb057611faf612089565b5b828201905092915050565b6000611fc682611fe3565b9050919050565b60008115159050919050565b6000819050919050565b600073ffffffffffffffffffffffffffffffffffffffff82169050919050565b6000819050919050565b600060ff82169050919050565b60005b8381101561203857808201518184015260208101905061201d565b83811115612047576000848401525b50505050565b6000600282049050600182168061206557607f821691505b60208210811415612079576120786120b8565b5b50919050565b6000819050919050565b7f4e487b7100000000000000000000000000000000000000000000000000000000600052601160045260246000fd5b7f4e487b7100000000000000000000000000000000000000000000000000000000600052602260045260246000fd5b6000601f19601f8301169050919050565b7f45434453413a20696e76616c6964207369676e61747572650000000000000000600082015250565b7f45524332303a207472616e7366657220746f20746865207a65726f206164647260008201527f6573730000000000000000000000000000000000000000000000000000000000602082015250565b7f45434453413a20696e76616c6964207369676e6174757265206c656e67746800600082015250565b7f45524332303a20617070726f766520746f20746865207a65726f20616464726560008201527f7373000000000000000000000000000000000000000000000000000000000000602082015250565b7f1901000000000000000000000000000000000000000000000000000000000000600082015250565b7f45524332303a20696e73756666696369656e7420616c6c6f77616e6365000000600082015250565b7f45524332305065726d69743a206578706972656420646561646c696e65000000600082015250565b7f45524332303a207472616e7366657220616d6f756e742065786365656473206260008201527f616c616e63650000000000000000000000000000000000000000000000000000602082015250565b7f45434453413a20696e76616c6964207369676e6174757265202773272076616c60008201527f7565000000000000000000000000000000000000000000000000000000000000602082015250565b7f45434453413a20696e76616c6964207369676e6174757265202776272076616c60008201527f7565000000000000000000000000000000000000000000000000000000000000602082015250565b7f45524332305065726d69743a20696e76616c6964207369676e61747572650000600082015250565b7f45524332303a207472616e736665722066726f6d20746865207a65726f20616460008201527f6472657373000000000000000000000000000000000000000000000000000000602082015250565b7f45524332303a20617070726f76652066726f6d20746865207a65726f2061646460008201527f7265737300000000000000000000000000000000000000000000000000000000602082015250565b7f496e697469616c697a61626c653a20636f6e7472616374206973206e6f74206960008201527f6e697469616c697a696e67000000000000000000000000000000000000000000602082015250565b7f45524332303a2064656372656173656420616c6c6f77616e63652062656c6f7760008201527f207a65726f000000000000000000000000000000000000000000000000000000602082015250565b7f45524332303a206d696e7420746f20746865207a65726f206164647265737300600082015250565b6124e781611fbb565b81146124f257600080fd5b50565b6124fe81611fd9565b811461250957600080fd5b50565b61251581612003565b811461252057600080fd5b50565b61252c8161200d565b811461253757600080fd5b5056fea2646970667358221220e6c151281febc7b8ccdebfc1d4baf481d4f6dcbac80a15a7179ae647c9211b2d64736f6c63430008040033",
  "linkReferences": {},
  "deployedLinkReferences": {}
}